{
    "abi": [
        {
            "inputs": [],
            "stateMutability": "payable",
            "type": "constructor"
        },
        {
            "anonymous": false,
            "inputs": [
                {
                    "indexed": true,
                    "internalType": "address",
                    "name": "from",
                    "type": "address"
                },
                {
                    "indexed": false,
                    "internalType": "uint256",
                    "name": "timestamp",
                    "type": "uint256"
                },
                {
                    "indexed": false,
                    "internalType": "uint256",
                    "name": "orientation",
                    "type": "uint256"
                },
                {
                    "indexed": false,
                    "internalType": "string",
                    "name": "message",
                    "type": "string"
                }
            ],
            "name": "NewThumb",
            "type": "event"
        },
        {
            "inputs": [
                {
                    "internalType": "string",
                    "name": "_message",
                    "type": "string"
                }
            ],
            "name": "down",
            "outputs": [],
            "stateMutability": "nonpayable",
            "type": "function"
        },
        {
            "inputs": [],
            "name": "getAllThumbs",
            "outputs": [
                {
                    "components": [
                        {
                            "internalType": "address",
                            "name": "sender",
                            "type": "address"
                        },
                        {
                            "internalType": "uint256",
                            "name": "timestamp",
                            "type": "uint256"
                        },
                        {
                            "internalType": "uint256",
                            "name": "orientation",
                            "type": "uint256"
                        },
                        {
                            "internalType": "string",
                            "name": "message",
                            "type": "string"
                        }
                    ],
                    "internalType": "struct ThumbPortal.Thumb[]",
                    "name": "",
                    "type": "tuple[]"
                }
            ],
            "stateMutability": "view",
            "type": "function"
        },
        {
            "inputs": [],
            "name": "getTotalDown",
            "outputs": [
                {
                    "internalType": "uint256",
                    "name": "",
                    "type": "uint256"
                }
            ],
            "stateMutability": "view",
            "type": "function"
        },
        {
            "inputs": [],
            "name": "getTotalUp",
            "outputs": [
                {
                    "internalType": "uint256",
                    "name": "",
                    "type": "uint256"
                }
            ],
            "stateMutability": "view",
            "type": "function"
        },
        {
            "inputs": [
                {
                    "internalType": "address",
                    "name": "",
                    "type": "address"
                }
            ],
            "name": "lastThumbUp",
            "outputs": [
                {
                    "internalType": "uint256",
                    "name": "",
                    "type": "uint256"
                }
            ],
            "stateMutability": "view",
            "type": "function"
        },
        {
            "inputs": [
                {
                    "internalType": "string",
                    "name": "_message",
                    "type": "string"
                }
            ],
            "name": "up",
            "outputs": [],
            "stateMutability": "nonpayable",
            "type": "function"
        }
    ],
    "bytecode": {
        "object": "0x60e06040526027608081815261002491610e8860a03961004260201b6107be1760201c565b606461003044426100ad565b61003a91906100d3565b60025561014a565b6100898160405160240161005691906100f5565b60408051601f198184030181529190526020810180516001600160e01b0390811663104c13eb60e21b1790915261008c16565b50565b80516a636f6e736f6c652e6c6f67602083016000808483855afa5050505050565b600082198211156100ce57634e487b7160e01b600052601160045260246000fd5b500190565b6000826100f057634e487b7160e01b600052601260045260246000fd5b500690565b600060208083528351808285015260005b8181101561012257858101830151858201604001528201610106565b81811115610134576000604083870101525b50601f01601f1916929092016040019392505050565b610d2f806101596000396000f3fe608060405234801561001057600080fd5b50600436106100625760003560e01c8063016e6fa8146100675780634265e5b5146100825780636aa7456a146100975780636e6b6140146100b7578063d1ab45b4146100ca578063d8511c64146100d2575b600080fd5b61006f6100e7565b6040519081526020015b60405180910390f35b6100956100903660046109a2565b610131565b005b61006f6100a5366004610a53565b60046020526000908152604090205481565b6100956100c53660046109a2565b6102b6565b61006f610658565b6100da6106a2565b6040516100799190610ad0565b600061012a6040518060400160405280601d81526020017f54686572652068617665206265656e202564207468756d62732075702e000000815250600054610801565b5060005490565b60018060008282546101439190610b64565b9250508190555061016d604051806060016040528060288152602001610cac60289139338361084a565b6040805160808101825233815242602080830191825260009383018481526060840186815260038054600181018255965284517fc2575a0e9e593c00f959f8c92f12db2869c3395a3b0502d05e2516446f71f85b600490970296870180546001600160a01b0319166001600160a01b0390921691909117815593517fc2575a0e9e593c00f959f8c92f12db2869c3395a3b0502d05e2516446f71f85c87015590517fc2575a0e9e593c00f959f8c92f12db2869c3395a3b0502d05e2516446f71f85d8601555180519394929361026a937fc2575a0e9e593c00f959f8c92f12db2869c3395a3b0502d05e2516446f71f85e019291909101906108f3565b505050336001600160a01b03167f3643d1a0ff3bad2b7c200a36f8c3155a672ccbabaa22e69d942b7770dd1def37426000846040516102ab93929190610b8a565b60405180910390a250565b3360009081526004602052604090205442906102d390601e610b64565b106103185760405162461bcd60e51b815260206004820152601060248201526f57616974203330207365636f6e64732160801b60448201526064015b60405180910390fd5b336000908152600460205260408120429055805460019190819061033d908490610b64565b92505081905550610367604051806060016040528060268152602001610cd460269139338361084a565b6040805160808101825233815242602080830191825260019383018481526060840186815260038054968701815560005284517fc2575a0e9e593c00f959f8c92f12db2869c3395a3b0502d05e2516446f71f85b600490970296870180546001600160a01b0319166001600160a01b0390921691909117815593517fc2575a0e9e593c00f959f8c92f12db2869c3395a3b0502d05e2516446f71f85c87015590517fc2575a0e9e593c00f959f8c92f12db2869c3395a3b0502d05e2516446f71f85d86015551805193949293610464937fc2575a0e9e593c00f959f8c92f12db2869c3395a3b0502d05e2516446f71f85e019291909101906108f3565b505050336001600160a01b03167f3643d1a0ff3bad2b7c200a36f8c3155a672ccbabaa22e69d942b7770dd1def37426001846040516104a593929190610b8a565b60405180910390a26002546064906104bd4244610b64565b6104c79190610b64565b6104d19190610bb2565b600281905560408051808201909152601681527514985b991bdb4808c819d95b995c985d19590e88095960521b602082015261050c91610801565b6019600254116106555761053f60405180604001604052806007815260200166257320776f6e2160c81b81525033610891565b66038d7ea4c68000478111156105aa5760405162461bcd60e51b815260206004820152602a60248201527f5468657265206973206e6f7420656e6f75676820657468657220696e2074686560448201526920636f6e74726163742160b01b606482015260840161030f565b604051600090339083908381818185875af1925050503d80600081146105ec576040519150601f19603f3d011682016040523d82523d6000602084013e6105f1565b606091505b50509050806106525760405162461bcd60e51b815260206004820152602760248201527f4661696c656420746f207769746864726177206d6f6e65792066726f6d20636f604482015266373a3930b1ba1760c91b606482015260840161030f565b50505b50565b600061069b6040518060400160405280601f81526020017f54686572652068617665206265656e202564207468756d627320646f776e2e00815250600154610801565b5060015490565b60606003805480602002602001604051908101604052809291908181526020016000905b828210156107b5576000848152602090819020604080516080810182526004860290920180546001600160a01b0316835260018101549383019390935260028301549082015260038201805491929160608401919061072490610bd4565b80601f016020809104026020016040519081016040528092919081815260200182805461075090610bd4565b801561079d5780601f106107725761010080835404028352916020019161079d565b820191906000526020600020905b81548152906001019060200180831161078057829003601f168201915b505050505081525050815260200190600101906106c6565b50505050905090565b610655816040516024016107d29190610c0e565b60408051601f198184030181529190526020810180516001600160e01b031663104c13eb60e21b1790526108d2565b6108468282604051602401610817929190610c21565b60408051601f198184030181529190526020810180516001600160e01b03166309710a9d60e41b1790526108d2565b5050565b61065283838360405160240161086293929190610c43565b60408051601f198184030181529190526020810180516001600160e01b031663e0e9ad4f60e01b1790526108d2565b61084682826040516024016108a7929190610c81565b60408051601f198184030181529190526020810180516001600160e01b031663319af33360e01b1790525b80516a636f6e736f6c652e6c6f67602083016000808483855afa5050505050565b8280546108ff90610bd4565b90600052602060002090601f0160209004810192826109215760008555610967565b82601f1061093a57805160ff1916838001178555610967565b82800160010185558215610967579182015b8281111561096757825182559160200191906001019061094c565b50610973929150610977565b5090565b5b808211156109735760008155600101610978565b634e487b7160e01b600052604160045260246000fd5b6000602082840312156109b457600080fd5b813567ffffffffffffffff808211156109cc57600080fd5b818401915084601f8301126109e057600080fd5b8135818111156109f2576109f261098c565b604051601f8201601f19908116603f01168101908382118183101715610a1a57610a1a61098c565b81604052828152876020848701011115610a3357600080fd5b826020860160208301376000928101602001929092525095945050505050565b600060208284031215610a6557600080fd5b81356001600160a01b0381168114610a7c57600080fd5b9392505050565b6000815180845260005b81811015610aa957602081850181015186830182015201610a8d565b81811115610abb576000602083870101525b50601f01601f19169290920160200192915050565b60006020808301818452808551808352604092508286019150828160051b87010184880160005b83811015610b5657888303603f19018552815180516001600160a01b0316845287810151888501528681015187850152606090810151608091850182905290610b4281860183610a83565b968901969450505090860190600101610af7565b509098975050505050505050565b60008219821115610b8557634e487b7160e01b600052601160045260246000fd5b500190565b838152826020820152606060408201526000610ba96060830184610a83565b95945050505050565b600082610bcf57634e487b7160e01b600052601260045260246000fd5b500690565b600181811c90821680610be857607f821691505b602082108103610c0857634e487b7160e01b600052602260045260246000fd5b50919050565b602081526000610a7c6020830184610a83565b604081526000610c346040830185610a83565b90508260208301529392505050565b606081526000610c566060830186610a83565b6001600160a01b03851660208401528281036040840152610c778185610a83565b9695505050505050565b604081526000610c946040830185610a83565b905060018060a01b0383166020830152939250505056fe257320686173207075742061207468756d6220646f776e2077697468206d6573736167653a202573257320686173207075742061207468756d622075702077697468206d6573736167653a202573a2646970667358221220a0cb9b85ce0555258256951968206b35496f7bfe0589f2413e80756c694bd4be64736f6c634300080d00335468697320697320796f757220736d61727420636f6e747261637420737065616b696e672e2e2e",
        "linkReferences": {}
    },
    "methodIdentifiers": {
        "down(string)": "4265e5b5",
        "getAllThumbs()": "d8511c64",
        "getTotalDown()": "d1ab45b4",
        "getTotalUp()": "016e6fa8",
        "lastThumbUp(address)": "6aa7456a",
        "up(string)": "6e6b6140"
    },
    "id": 6
}